:020000041000EA
:1000000000B5324B212058609868022188439860DF
:10001000D860186158612E4B002199600221596106
:100020000121F02299502B49196001219960352056
:1000300000F044F80222904214D00621196600F024
:1000400034F8196E01211966002018661A6600F04E
:100050002CF8196E196E196E052000F02FF8012189
:100060000842F9D1002199601B49196000215960AB
:100070001A491B48016001219960EB211966A021F2
:10008000196600F012F800219960164914480160C1
:100090000121996001BC002800D000471248134993
:1000A000086003C880F30888084703B5996A0420EC
:1000B0000142FBD001200142F8D103BD02B5186610
:1000C0001866FFF7F2FF186E186E02BD00000240BE
:1000D000000000180000070000035F00212200005C
:1000E000F4000018222000A00001001008ED00E03C
:1000F00000000000000000000000000074B24E7A12
:1001000000200420F7010010C3010010C5010010F9
:10011000C1010010C1010010C1010010C101001097
:10012000C1010010C1010010C1010010C701001081
:10013000C1010010C1010010C9010010CB01001065
:10014000CD010010CD010010CD010010CD01001037
:10015000CD010010CD010010CD010010CD01001027
:10016000CD010010CD010010CD010010CD01001017
:10017000CD010010CD010010CD010010CD01001007
:10018000CD010010CD010010CD010010CD010010F7
:10019000CD010010CD010010CD010010CD010010E7
:1001A000CD010010CD010010CD010010CD010010D7
:1001B000CD010010CD010010CD010010CD010010C7
:1001C00000BE00BE00BE00BE00BE00BEEFF3058054
:1001D000103800BEF2EB8871DCC30A1048C40A1064
:1001E0003402001090A31AE700201F49086006C8D7
:1001F00081F3088810471D48006800282FD10DA4FE
:100200000ECC002902D000F012F8F9E71849194A7B
:10021000002000E001C19142FCD1174988471749ED
:1002200088471749884700BEFDE701C901C29A42C5
:10023000FBD3704748C40A10C0000020B03E002025
:1002400044020B10000004200000042044020B10A4
:10025000001004200010042000000000704709482E
:1002600031F054FF0047000008ED00E0000000D02E
:10027000C03E0020385F0120450903103103001003
:10028000790A03105756000006005250ABB3605372
:10029000A87A051006005250861C0302B87A051091
:1002A000060052505422A29DC47A051005005250F7
:1002B000DE65F46844020B10F8B5C04606480749ED
:1002C000091A8B10C90FC91810B5491003D0044B77
:1002D000002B00D0984710BDB03E0020B03E00205B
:1002E00000000000054B10B5002B03D00449054861
:1002F00000E000BFFFF7E2FF10BDC04600000000B5
:10030000D43C01209823051010B533F0B7FF182016
:1003100032F0C4FF040000F079FC200000F080FC03
:10032000200000F01BFD10BD10B550F0E3FE0000F2
:10033000882010B5400032F0B1FF040000F084F8CE
:10034000200000F0C3FA044833F06CFF200000F0F6
:10035000D3F8002010BDC04609030010F0B5C64612
:10036000742300B59046CB5A028A04000D009A42CD
:100370000AD0428A9A4207D0214B1A685B68826190
:10038000C36180BCB846F0BDA669E76933003B4352
:1003900012D01C4B5A6A9742F3D89B6AB3421FD3C0
:1003A0007423228AEB5A9A421DD0628A9A42E8D17B
:1003B000154803F0F5FBE4E72FF036FD0027134E58
:1003C000802336184F411B069F4202D30126104F4F
:1003D00076420C4BA661E7615A6A9742D1D8DCE7B6
:1003E0009742DDD1CDE7404643425841094B404258
:1003F0001840094B9C46604403F0D2FBC1E7C0465D
:100400002878051000400540E1E437F700093D0079
:10041000FFFFFF7FD81DA2A3CD66D54370B5084D61
:1004200028004FF049F8074C002801D1200070BD8A
:10043000200002F06FFB28004FF05AF8F6E7C046A4
:100440005C420020588C0020F8B5002200230400F4
:1004500005210CC000F0FCFC0023E422A350220084
:10046000E43253609360F022A3541F4B1F4F18686F
:10047000596823001E4DF03310329860D960A550A2
:100480009861D96138004FF017F81A4E00281CD136
:10049000DC2032F003FF0500052100F0D9FC30001C
:1004A000290003F05DF838004FF006F8002813D15A
:1004B000DC2032F0F3FE0500052100F0C9FC30001D
:1004C000290003F051F82000F8BD300002F022FBB3
:1004D00038004FF00DF8DBE7300002F01BFB38006E
:1004E0004FF006F8E4E7C046287805105C4200208B
:1004F0000C020C01588C0020F0B5DE4657464E46E3
:100500004546E0B589B00400FFF788FF03F02AF8FC
:100510000700FFF783FF03F029F88246FFF77EFF0D
:1005200003F01CF8A24B83469846A24BA24D0193C0
:10053000F0239946A14BA24E0593E4239C46A44484
:100540006346049353467233079372239C46BC441C
:100550006346A144069328004EF0AEFF00283ED12A
:10056000300002F005FB5B46002B44D040464EF0C5
:10057000A3FF002800D0BEE040464EF09DFF0028BB
:1005800000D0B4E0019802F085FA380001F004F9D7
:10059000F023E35C002B00D0A3E07433FB5A002B64
:1005A00000D0ACE04B469A68DB68110002920393DE
:1005B000194300D1CEE08349039B486A9C4683429D
:1005C000C9D88B6A029A934201D28445C3D0F023E2
:1005D00001222800E2544EF06FFF0028C0D0300006
:1005E00002F098FA28004EF083FF300002F0C0FAC3
:1005F0005B46002BBAD12368029363689A4600F0E9
:1006000023FC8A4500D98BE000D185E0380001F059
:10061000C3F8380001F082F9380001F06DFAF023D8
:10062000E35C002B72D17433FB5A002B00D08AE0BC
:100630004B469A68DB68110002920393194300D17C
:100640009FE06049039B486A9C46834208D88B6AB6
:10065000029A934201D2844502D0F0230122E2544F
:10066000049B00219A46180002F02CF9380000F093
:1006700049FE5046002102F03DF9102206990798E4
:1006800032F006FE380002F0C7F88246380001F06A
:100690000FFC010050464AF0B1FD28004EF00CFF5F
:1006A000002849D1300002F063FF28004EF004FF1B
:1006B00000283AD1300002F063FF4AF08BFD01219F
:1006C000049802F017F901200021404234F044FA66
:1006D00000F0BAFB64220023801859412060616059
:1006E00039E7012239004846FFF738FE33E7404634
:1006F0004EF0FEFE46E740464EF0FAFE3CE7494625
:10070000059B1A685B688A60CB6024E70022390089
:100710004846FFF723FEA3E7029B834200D875E714
:10072000322000212FF0AAFA15E7300002F0F2F98A
:1007300028004EF0DDFEBDE7300002F0EBF92800A6
:100740004EF0D6FEAEE74946059B1A685B688A60A4
:10075000CB6085E72FF068FB3222002312184B4153
:1007600080210292039309068B4204D30122164B87
:100770005242029203930299039A4B469960DA60BF
:1007800019E72FF051FB3222002312184B41802130
:100790000292039309068B4204D301220A4B524270
:1007A000029203930299039A4B469960DA6048E7F4
:1007B00054420020248700205C4200202878051045
:1007C000588C002000400540FFFFFF7F70B503F00C
:1007D000FBF9394B98423ED0384B984255D000280F
:1007E00001D0002038E0364D28004EF065FE354E31
:1007F000002839D1300002F0B5FE040000F0CCFF33
:1008000028004EF059FE002827D12F4BF35C012B16
:1008100017D0032B2FD07422A25A023BDBB2D10592
:1008200035D4012B01D9930515D453073BD41307B5
:100830003BD4D3073BD493073BD41206D1D5062033
:100840000AE07422A25AD1052AD59205C9D572228E
:10085000A25C134219D1012070BD300002F05AF998
:1008600028004EF045FED0E7300002F053F9280092
:100870004EF03EFEBEE77423E35ADA05B1D59B0580
:10088000AFD57223E35CDB07ABD50220E4E791052B
:10089000CBD57221615CC907F7D4012BDBD8C4E743
:1008A000500A1840D8E70320D6E70720D4E70420F1
:1008B000D2E70520D0E7C046A58477E7E1E437F723
:1008C0005C420020588C00205A180000F8B59F4F59
:1008D000040038004EF0F0FD9D4E002800D019E1D4
:1008E000300002F03FFE050000F008FBFFF76EFF4E
:1008F000012800D1F7E000DCEBE0022800D11BE189
:10090000C21E042A18D8D022A9584A78032800D138
:1009100019E10126042806D00026052803D0C31FAC
:1009200058424341DE1C964203D028004E7000F02E
:10093000FDFF30004AF03EFC3DF0C0F80C2032F0E4
:10094000ADFC05000C22002132F09CFC814BE4340C
:1009500029002B600022200002F062F8082032F00B
:100960009DFC00257C4B01000360002245602000B7
:1009700002F056F8242032F091FC060024220021D7
:1009800032F080FC754B310033600022200002F011
:1009900047F80C2032F082FC714B0100036000220A
:1009A00045600572200002F03BF80C2032F076FC26
:1009B0006C4B01000360002245600572200002F0CC
:1009C0002FF8242032F06AFC05002422002132F0A6
:1009D00059FC654B29002B600022200002F020F812
:1009E0000C2032F05BFC05000C22002132F04AFCA6
:1009F0005E4B29002B600022200002F011F820201D
:100A000032F04CFC05002022002132F03BFC584B18
:100A100029002B600022200002F002F8542032F05E
:100A20003DFC05005422002132F02CFC514B2900E2
:100A30002B600022200001F0F3FF302032F02EFC6A
:100A400005003022002132F01DFC4B4B29002B60A9
:100A50000022200001F0E4FF242032F01FFC0500FA
:100A60002422002132F00EFC444B29002B6000228E
:100A7000200001F0D5FF0C2032F010FC05000C2204
:100A8000002132F0FFFB3E4B29002B6001222000A9
:100A900001F0C6FF142032F001FC050014220021F1
:100AA00032F0F0FB374B29002B600022200001F0D0
:100AB000B7FF282032F0F2FB05002822002132F097
:100AC000E1FB314B29002B600022200001F0A8FF40
:100AD000F8BD002800D02FE7D023EB585E78300017
:100AE0004AF068FB28E738004EF0E6FC00281CD1ED
:100AF0000121300002F024FDFF204AF05BFB234D72
:100B000028004EF0D9FC00280BD10021204801F02C
:100B1000AFFF11E7300001F0FDFF38004EF0E8FCB8
:100B2000DEE628004EF0E4FCEFE7300001F0F2FFD3
:100B300038004EF0DDFCDBE7164831F0E7FA002123
:100B40000300080098470226EDE6C0465C420020FC
:100B5000588C0020445F0510086005105C6105108A
:100B6000BC6105106860051064620510C062051064
:100B7000586A0510B46A0510786B0510D46B05101F
:100B8000E8680510146B0510306C05105442002005
:100B9000248700205542000030B5174A8FB01368F3
:100BA00001331360012B08D10122144B52421A6009
:100BB00000225A609A60DA601A61114A13680133A0
:100BC0001360012B01D00FB030BD38220D496846AB
:100BD00032F05EFB00230C4C382023606360A3607E
:100BE00032F05CFB05003822383569462060A5608C
:100BF00032F04EFB6560E6E74C42002034420020B4
:100C000048420020BC240510FCB70020002200232D
:100C10000260436000238360C36003617047C04685
:100C20000830F8B505008E20C00032F037FB8E2268
:100C300004000021D20032F025FB3F4B0026236048
:100C4000012323738A23DB00E218083BE2500833B8
:100C5000E65421000222280001F0E2FEE620800096
:100C600032F01CFBE62204000021920032F00AFB65
:100C7000324B20002360CA230A225B00C530E250B9
:100C8000FF3043F02FFFDF239B00E654E3182100E1
:100C90005E601E6102229B60DB60280001F0C0FEE6
:100CA000102032F0FBFA264B264F86600673036055
:100CB000040038004EF000FC234E002835D1234BB1
:100CC0002100F35C28002371022201F0A9FE0C2010
:100CD00032F0E4FA04000C22002132F0D3FA1C4B6B
:100CE000210023602800022201F09AFE142032F035
:100CF000D5FA04001422002132F0C4FA154B210069
:100D000023602800022201F08BFEB42032F0C6FAE4
:100D10000400B422002132F0B5FA0F4B2800022261
:100D20002100236001F07CFEF8BD300001F0F2FEEE
:100D300038004EF0DDFBC2E70C6505107868051041
:100D4000906905105C420020588C0020ED0C0000DA
:100D5000A45F0510CC600510F4690510F8B50823F0
:100D6000CE464746994606006424002580B5814456
:100D700033687768984600F067F88F420AD93220C6
:100D800000212EF07BFF33687768984600F05CF80E
:100D90008F42F4D88F4201D18045F0D802214846D5
:100DA00001F0A8FD00F050F8001969413060716051
:100DB000DEE7C04630B5174A8FB0136801331360C1
:100DC000012B08D10122144B52421A6000225A60B2
:100DD0009A60DA601A61114A136801331360012BBB
:100DE00001D00FB030BD38220D49684632F050FABC
:100DF00000230C4C382023606360A36032F04EFA6D
:100E000005003822383569462060A56032F040FA86
:100E10006560E6E74C420020344200204842002052
:100E2000F4240510FCB7002010B52EF0FDFF0029BA
:100E300005D0FA220023920031F000FA10BDFA2109
:100E4000890031F0BDF9F9E710B52EF0EDFF10BDC6
:100E500070B50023040060250020224AC9B2A070AA
:100E60002171A071E26022612380A360A382615599
:100E7000622160540E31A266E266636663520231FB
:100E80006054A267E2678022174D63672800A3526F
:100E90004EF012FB00280FD1D023144E2800E6504C
:100EA0004EF00AFB002815D1D422114B2000A3508C
:100EB000D8230022E25470BD0E4801F02BFE28001A
:100EC0004EF016FBD023094E2800E6504EF0F4FAFF
:100ED0000028E9D0084BF01801F01CFE28004EF065
:100EE00007FBE1E7FF7FFF7F5C4200204E9100207F
:100EF00060910020588C00200AFBFFFFF8B5CE4619
:100F00004746E34C80B5050020004EF0D5FAE14F8E
:100F1000002800D0E2E10C2032F0C0F9CC23DB0045
:100F2000FA581D2A00D8D5E1FF230370002343603F
:100F3000012484230481E8500C2032F0AFF9CD2342
:100F4000DB00FB581D2B00D8C1E1FF2300240370F8
:100F5000022303818633E85044600C2032F09EF96E
:100F6000CE23DB00FA581D2A00D8ACE1FF23037022
:100F700000234360042303818833E8500C2032F0BF
:100F80008DF9CF23DB00FA581D2A00D897E1FF2303
:100F9000037000234360082303818833E8500C204A
:100FA00032F07CF9D023DB00FA581D2A00D882E108
:100FB000FF23037000234360012494230481E8503D
:100FC0000C2032F06BF9D123DB00FB581D2B00D82D
:100FD0006EE1FF2300240370022303819633E8505F
:100FE00044600C2032F05AF9D223DB00FA581D2A53
:100FF00000D859E1FF2303700023436004230381D9
:101000009833E8500C2032F049F9D323DB00FA582A
:101010001D2A00D844E1FF23037000234360082306
:1010200003819833E8500C2032F038F9D423DB00E8
:10103000FA581D2A00D82FE1FF23037000234360D4
:10104000102303819433E8500C2032F027F9D52384
:10105000DB00FA581D2A00D815E1FF230370002396
:101060004360202303818833E8500C2032F016F9C6
:10107000D623DB00FA581D2A00D800E1FF230370B5
:1010800000234360402303816C33E8500C2032F08E
:1010900005F9D723DB00FA581D2A00D8EBE0FF231F
:1010A000037000234360802303813033E8500C2019
:1010B00032F0F4F8D823DB00FA581D2A00D8D6E025
:1010C000FF2303700023436080235B0003814C3BBC
:1010D000E8500C2032F0E2F8D923DB00FA581D2A40
:1010E00000D8C0E0FF2303700023436080239B00EF
:1010F0000381493BFF3BE8500C2032F0CFF8DA2364
:10110000DB00FA581D2A00D8A9E0FF230370002352
:1011100043608023DB000381BC23E8500C2032F0C5
:10112000BDF8DB23DB00FA581D2A00D893E0FF232B
:1011300003700023436080231B010381C023E85018
:101140000C2032F0ABF8DC23DB00FA581D2A00D863
:101150007DE0FF2303700023436080235B01038154
:10116000C423E8500C2032F099F8DD23DB00FA5854
:101170001D2A68D9FF230370002343608023C824FD
:101180009B0103812851482032F08CF88822AA580C
:10119000842342608C22AA58EB5882609022AA587D
:1011A0000360C2609422AA58CC2602619822AA58F1
:1011B00042619C22AA588261A022AA58C261A4223C
:1011C000AA580262A822AA584262AC22AA58826295
:1011D000B022AA58C262B422AA580263B822AA58FE
:1011E0004263BC22AA588263C022AA58C263C422A6
:1011F000AA5802642A5900244264CC22A850CB3A4F
:101200009146D0221206904601E0AB591B5918783E
:10121000FF280CD02DF016FDAB5942461B59012179
:1012200018784B468340936200222DF0B3FC0434BF
:10123000482CEAD1DE24E40038591D2855D9C0BC19
:10124000B946B046F8BD01230270934095E70123EB
:101250000270934080E70123027093406AE7012304
:101260000270934054E70123027093403DE701234D
:101270000270934027E701230270934012E7012395
:1012800002709340FDE6012302709340E8E6C046F9
:101290005C420020588C0020012302709340CEE66F
:1012A000012302709340B9E6012302709340A4E643
:1012B0009C40037090E60123027093407BE601237B
:1012C0000270934066E601230270934051E69C4011
:1012D00003703DE601230270934028E6380001F0D8
:1012E00019FC20004EF004F915E62DF0ABFC0123AB
:1012F0003859D022834012069362012100222DF03A
:1013000049FC9CE7F0B50400C6462100102272316A
:1013100000B5623031F0BCFFD023E158CB79002B0F
:101320005FD17233E35C4A7A002A16D084221D0012
:10133000A0580432A25806891289007A1540A8469E
:1013400005001F00D2B21543AB43374246D1424697
:10135000002A00D003437222A354487904285CD0A9
:1013600003221A40022A00D14EE1032A00D1C7E02D
:10137000012A00D112E1042708260022C24D2A705A
:101380000C252B40082B00D112E10C2B00D140E1A1
:10139000042B00D1C6E0BD4B002018707223E2542C
:1013A000CB7B002B46D005231340012B00D17BE1E2
:1013B00009231340012B00D139E10A231340022BEA
:1013C00000D188E106231340022B00D186E1042BD3
:1013D00000D0E0E00320AE4B1870DCE01343DBB23A
:1013E000B5E77223E05C1A330600E2580433E35891
:1013F000157A1B8917891E40DAB22B00B446060005
:1014000013439E433300384200D013436246002A00
:1014100000D02B437222A35485E74878421E012A4C
:101420001AD91A00042817D07223E254CB7B002B60
:1014300000D081E0CB78012B3FD0022B19D063780C
:10144000002B01D1934BA367A378002B01D1914BC3
:10145000E36780BCB846F0BD03201840022800D1E5
:10146000D1E0032800D148E1012800D196E0012015
:1014700081E76378002B00D1B4E00C231340042BE8
:1014800000D1B6E0083B59424B418349DB038C460F
:101490007C216344635203231340012B00D1B0E04D
:1014A000023B5A4253417C4ADB03944663447E220A
:1014B000A35272230022E254CBE7A378002B00D181
:1014C00080E00C231340042B00D182E0083B5942FA
:1014D0004B417149DB038C467821634463520323FB
:1014E0001340012B7CD0023B5A4253416A4ADB0332
:1014F000944663447A22A35272230022E254A8E75E
:10150000002800D0A4E001255F4805700C200340AE
:10151000082B00D11CE10C2B02D0042B00D1F2E0EF
:10152000012238E70322594B1A7072233A00E25421
:10153000CB7B002B00D17DE705231340052B00D08A
:1015400015E1564B1B78032B00D1CAE0FE231A404D
:1015500009231340092B00D0B4E0514B1B78012B19
:1015600000D1C4E0F7231A400A2313400A2B62D1AA
:101570004C4B1B78042B00D1BCE0FD231A40062302
:101580001340062B00D01FE7414B1B78022B00D1E4
:10159000AAE0FB231A407223E2544BE701223A4DA2
:1015A00005272A700C2509262B40082B00D0ECE6D5
:1015B0000420364B18707223E654CB7B002B40D1AD
:1015C000320037E7334BE3670C231340042B00D082
:1015D0007CE700237821635203231340012B82D13F
:1015E000002387E72B4BA3670C231340042B00D069
:1015F00048E700237C21635203231340012B00D0D2
:101600004EE7002353E7012006270A2602221E4D3B
:10161000B5E602282FD0032800D0BCE61B4B187873
:10162000002800D1B8E60328C5D13A00FCE61C48E2
:10163000037009331340082B3ED10420194B187056
:101640009DE705231340012B00D17DE032007FE7A9
:101650000D4D022862D12A78002A50D0012A00D1EB
:101660007EE00527092601220C200340082B9FD08D
:101670000C2B00D08CE6054B1878002800D18BE6A7
:10168000032898D03A00CFE6185F0120175F0120A9
:10169000195F0120FF7FFF7FFF7F00001B5F01209C
:1016A0001C5F01201A5F012035480370092010409B
:1016B000012850D00A231340022B00D05FE73148A5
:1016C00003705CE7012B3CD0082B00D04CE70420D2
:1016D0002D4B187048E72B4A137002222B480370D9
:1016E00059E7F8331A4033E79A43D2B253E79A43A3
:1016F000D2B239E7F3331A4041E70120244D0427E1
:10170000082600223BE6234B1A7072230522E2547E
:10171000CB7B002B00D18DE6052212E70328EED10A
:101720002A78002AEBD0012A1ED006270A26022298
:101730000C200340082B00D13AE70C2B00D027E601
:101740006CE7114803700FE70D4A13703200FFE693
:10175000092601222CE70C48037009331340ABE73C
:10176000022206270A267FE705270926E0E7042B41
:1017700003D10320024B1870EAE6160063E7C04667
:101780001B5F01201A5F01201C5F0120195F0120EF
:10179000185F0120175F012070B55D4E0400300016
:1017A0004DF08AFE5B4D002800D0A9E0DE22D20079
:1017B000A9580122D0238A401B0658688243511E33
:1017C0008A417621D20362528422A558C3436968B4
:1017D0000022814301D00822AA5688216158486816
:1017E000184202D009890A4352B28C2161584868D4
:1017F000184202D009890A4352B2902161584868C0
:10180000184202D009890A4352B2722162549422CA
:10181000A15800224868184201D008228A5E982107
:1018200061584868184202D009890A4312B29C21C3
:1018300061584868184202D009890A4312B2A021AF
:1018400061584868184202D009890A4312B2A4219B
:1018500061584868184202D009890A4312B2A82187
:1018600061584868184202D009890A4312B2AC2173
:1018700061584868184202D009890A4312B2B0215F
:1018800061584868184202D009890A4312B2B4214B
:1018900061584868184202D009890A4312B2B82137
:1018A00061584868184202D009890A4312B2BC2123
:1018B00061584868184202D009890A4312B2C0210F
:1018C00061584868184202D009890A4312B2C421FB
:1018D00061584868184202D009890A4312B2C821E7
:1018E00061584868184202D00B891A4312B2742317
:1018F000E252094B0022A367E3678023E25270BDE6
:10190000280001F007F930004DF0F2FD4EE7C04627
:101910005C420020588C0020FF7FFF7F010010B543
:10192000723104302CF088FB10BDC04670B5094DF3
:1019300028004DF0C1FD084C002803D1200001F023
:101940000DF970BD200001F0E5F828004DF0D0FD44
:10195000F4E7C0465C420020588C0020F8B5050032
:101960000C000E2918D8604A8B00D3589F46D82304
:10197000C35C0D2B10D0D0230121C258D37B4B4028
:10198000D3735A4F5A4E38004DF096FD002800D0C0
:1019900092E0300001F0E2F8D823EC54F8BDD823EF
:1019A000C35C0E2BF8D0514F38004DF085FD504EE2
:1019B000002800D091E001214E4AB35C4B40B35463
:1019C000D823EB5C0E2BDED1E6E7D0230022C358F0
:1019D000DA70D823C35C012BD3D1DDE7D0230122F9
:1019E000C358DA70D823C35C022BCAD1D4E7D02302
:1019F0000222C358DA70D823C35C032BC1D1CBE7D2
:101A000074228023815A5B010B438352C4E7D023A5
:101A1000C3585A78042A56D074228023A95A5B00EE
:101A20000B43AB52B8E7D0230022C3585A71D823D6
:101A3000C35C062BA5D1AFE7D823C35C092BABD081
:101A4000D0230121C258294FD379294E4B40D3715D
:101A500099E7D823C35C0A2B9ED0D0230121C2581A
:101A6000537A4B4053728CE7D0230322C3585A71E8
:101A7000D823C35C0B2B00D083E78DE7D02304224F
:101A8000C3585A71D823C35C0C2B00D079E783E785
:101A9000D0230122C3585A71D823C35C072B00D02E
:101AA0006FE779E7D0230222C3585A71D823C35C69
:101AB000082B00D065E76FE7300001F02BF8380005
:101AC0004DF016FD65E7DB7A002BA5D08023703240
:101AD000815A9B010B4383525EE7300001F01AF8F4
:101AE00038004DF005FD66E72C2505105C4200200E
:101AF000588C0020E50F0000F8B5DE4657464E46EC
:101B00004546D023E0B5C3585B7B002B00D0CEE028
:101B1000D433C358597B9C689D69002909D0742629
:101B20001A8AB3461700865B3740BC46974200D1FD
:101B3000DDE02922995C5C6A5D6B002908D074267F
:101B4000B346865B9A8D37001740BA4200D1E7E072
:101B50004522995C1C6C9A6C1D6D002907D0742776
:101B600096B2B446C65B3240944500D1F2E06122A1
:101B7000995CDC6D5A6EDD6E002907D0742796B231
:101B8000B446C65B3240944500D1FDE07D22995CAD
:101B90000B329C6F9E58002909D0083A9D5A0C3A86
:101BA000875A94463A002A40954200D1FEE094229A
:101BB0009C580532995C0B329E58002909D0083A8E
:101BC0009D5A283A875A94463A002A40954200D1B5
:101BD00001E1B0229C580532995C0B329E580029D5
:101BE00009D0083A9D5A443A875A94463A002A4006
:101BF000954200D101E1CC229C580532995C0B3210
:101C00009E58002909D0083A9D5A603A875A94464E
:101C10003A002A40954200D101E1E8229C58053261
:101C2000995C0B329E58002909D0083A9D5A7C3A9B
:101C3000875A94463A002A40954200D101E1822217
:101C400052009C580A22FF32995C0B329E580029A0
:101C500009D0083A9D5A983A875A94463A002A4041
:101C6000954200D1FFE0902252009C582622FF327C
:101C7000995C0B329E58002909D0083A9D5AB43A13
:101C8000875A94463A002A40954200D1FDE09E22B0
:101C900052009C584222FF32995C0B329D58002919
:101CA0000BD1D82300220021C254FFF757FEF0BC0D
:101CB000BB46B246A946A046F8BD7427C65B083AA3
:101CC0009A5A330013409A42EBD1E3B299467223F9
:101CD0009846C35C9C461C40A145E2D17624045B37
:101CE000ABB22540AB42DCD19643C6532CE0E2B206
:101CF000914672229046825C14404C4500D018E711
:101D0000AFB2B9467627C75B3D40A94500D010E782
:101D100063469E435B46C6524346A243C254C4E751
:101D2000E7B2B9467227B846C75DBC463C40A145FC
:101D300000D00DE77627C75BACB23D40AC4200D087
:101D400006E75B469643C6524A466346934342467D
:101D50008354AAE7E2B2924672229146825C904690
:101D60001440A24500D002E77624045BAAB22540C5
:101D7000AA4200D0FBE663469E43C6535246434602
:101D800093434A46835490E7E2B2924672229146C8
:101D9000825C90461440A24500D0F7E67624045BAE
:101DA000AAB22540AA4200D0F0E6E4E7E2B29246A9
:101DB00072229146825C90461440A24500D0F6E61D
:101DC0007624045BB2B22640B24200D0EFE663460E
:101DD000AF43C752D2E7E2B2924672229146825C8A
:101DE00090461440A24500D0F3E67624045BB2B2DC
:101DF0002640B24200D0ECE6E9E7E2B29246722217
:101E00009146825C90461440A24500D0F3E67624C9
:101E1000045BB2B22640B24200D0ECE6D7E7E2B2B1
:101E2000924672229146825C90461440A24500D0B0
:101E3000F3E67624045BB2B22640B24200D0ECE670
:101E4000C5E7E2B2924672229146825C9046144007
:101E5000A24500D0F3E67624045BB2B22640B2423B
:101E600000D0ECE6B3E7E2B2924672229146825C81
:101E700090461440A24500D0F5E67624045BB2B249
:101E80002640B24200D0EEE6A1E7E2B292467222CC
:101E90009146825C90461440A24500D0F7E6762435
:101EA000045BB2B22640B24200D0F0E68FE7C046F3
:101EB000D023C35813205B78042B02D8014A5B005F
:101EC000985A7047FC250510722330B5C15C633BFE
:101ED00002000B400A2B55D832499B00CB589F4635
:101EE0000323314883707423D45A723B61000B4042
:101EF0000121A5080D402B4365080D40AD002B4383
:101F0000E5080D40ED002B4325090D402D012B4325
:101F100065090D406D012B43A5090D40AD012B4313
:101F2000E5090D40ED012B43250A0D402D022B4301
:101F3000650A0D406D022B43A50A0D40AD022B43EF
:101F4000E50A0D40ED022B43250B0D40640B2D03DC
:101F500021402B4349030B430188890B89030B4321
:101F600003807823D35A1B0AC3707A23D35A1B0ADF
:101F700003717C23D35A1B0A43717E23D35A1B0A55
:101F8000837130BD0823ACE70023AAE70423A8E748
:101F90000623A6E70723A4E70523A2E70223A0E779
:101FA00001239EE768250510FC360020722370B5DA
:101FB000C25C633B010013400A2B51D8304A9B009E
:101FC000D3589F4603232F48012283707423022590
:101FD000CC5A6600A308354013402B4365081540D2
:101FE000AD002B43E5081540ED002B4325091540B6
:101FF0002D012B43650915406D012B43A5091540A3
:10200000AD012B43E5091540ED012B43250A154091
:102010002D022B43650A15406D022B43A50A15407E
:10202000AD022B43E50A1540ED022B43250B15406D
:10203000640B2D0322402B43520313430380782368
:10204000CB5A1B0AC3707A23CB5A1B0A03717C2319
:10205000CB5A1B0A43717E23CB5A1B0A837170BD76
:102060000823B0E70023AEE70423ACE70623AAE782
:102070000723A8E70523A6E70223A4E70123A2E795
:1020800094250510B4360020722370B5C55C023368
:10209000C15AAA08733B6E081A401E40760092008F
:1020A00032431E002E40ED081D40ED0032432A430E
:1020B0004D0A1D402D012A430D0A1D406D012A4382
:1020C0008D0A1D40AD012A43CD0A1D40ED012A4372
:1020D0001D00040020480D4082700A092D011A409D
:1020E0002A434D091D406D002A430D0B1D40AD00D4
:1020F0002A434D081D406D012A438D081D40AD0146
:102100002A43CD081D40ED012A43C270134D7822A9
:10211000AC46A25A6244C2807A22A55A104A551B84
:1021200005817C25655B654445817E25655B521B89
:1021300082812278002A06D07F33E35C03718123F9
:10214000E35C437170BD8A09C9091A400B405242D1
:102150005B420271DBB2F4E7A03600200080FFFF93
:10216000FF7F0000F0B5DE4657464E4645467223D7
:10217000E0B5C25C633B83B013400A2B00D990E00A
:102180005B4A9B00D3589F46032374220125865A3D
:10219000584CB7082F403F013B432F0037407F0189
:1021A0003B4377082F40BF013B43F7082F40FF0117
:1021B0003B4363717309B1092B4037092F40294014
:1021C000F2095B002A403B438F0001923B43D7005A
:1021D0000F223B43A77997433B43A371D023C358B6
:1021E000DB7A002B00D172E0B70A2F40730B2B4033
:1021F000B846F70A2F409946730A2B40BC46370B66
:10220000360A2F40009335403B4A3F0216789246EB
:10221000721C934652465B4613704A46009B12015D
:102220005B0113434246920113436246D2011343BA
:102230006D023B432B430F25B6023343E6883540FE
:102240002B43E3807823C35A1B0A63707A23C35A53
:102250001B0AA3707C23C35A1B0AE3707E23C35A54
:102260001B0A23710378002B2BD08023C35C2372BD
:102270008123C25C80232000204962720A785B427D
:102280001A430A700A792330134308220B7130F085
:10229000FFFF200003B0F0BCBB46B246A946A046F3
:1022A000F0BD0F2371E706236FE707236DE70523D2
:1022B0006BE7022369E7002367E7042365E701234F
:1022C00063E749422172019B5A42D2B2D2E7B70A70
:1022D0002F40330A2B40B846F70A2F409946730A1D
:1022E0002B40BC46370B760B2F40009335408BE7D5
:1022F000C0250510BC360020135F01206442002079
:1023000070B5C14C050020004DF0D6F8002844D12E
:10231000BE4B202200211C00180030F0B3FF212208
:102320000021631E99545132AA5C013118001142F8
:1023300000D093E10223134200D054E1530700D5AB
:1023400040E1120700D52BE174230122EB5A1A4217
:1023500000D013E19A0700D5FEE05A0700D5E9E066
:102360001A0700D5D4E0DA0600D5BFE09A0600D5FA
:10237000AAE05A0600D595E01A0600D580E0DA05F5
:1023800000D56BE09A0557D45A0543D41A052FD4CB
:10239000DA041BD49B0407D470BD9D4800F0BAFB3F
:1023A00020004DF0A5F8B3E7994B9A4A9B5CE72BC8
:1023B00000D81DE202221833DBB2027000220C2B7F
:1023C00001D8954AD25C2123C254E5E7904A93494B
:1023D000525CE72A00D800E202211832D2B2017022
:1023E00000210C2A01D88C49895C21228154D1E733
:1023F000874A8B49525CE72A00D8E3E10221183270
:10240000D2B2017000210C2A01D88349895C2122B3
:102410008154BDE77E4A8349525CE72A00D8C6E171
:1024200002211832D2B2017000210C2A01D87A4957
:10243000895C21228154A9E7754A7B49525CE72ACD
:1024400000D8A9E102211832D2B2017000210C2A71
:1024500001D87149895C2122815495E76C4A7349FE
:10246000525CE72A00D88CE102211832D2B2017006
:1024700000210C2A01D86849895C2122815481E716
:10248000634A6B49525CE72A00D86FE10221183297
:10249000D2B2017000210C2A01D85F49895C212247
:1024A00081546CE75A4A6349525CE72A00D852E1EA
:1024B00002211832D2B2017000210C2A01D85649EB
:1024C000895C2122815457E7514A5B49525CE72AD3
:1024D00000D835E102211832D2B2017000210C2A55
:1024E00001D84D49895C2122815442E7484A534929
:1024F000525CE72A00D818E102211832D2B20170EA
:1025000000210C2A01D84449895C212281542DE7FD
:102510003F4A4B49525CE72A00D8FBE002211832BF
:10252000D2B2017000210C2A01D83B49895C2122DA
:10253000815418E7364A4349525CE72A00D8DEE066
:1025400002211832D2B2017000210C2A01D832497E
:10255000895C2122815403E72D4A3B49525CE72ADA
:1025600000D8C1E002211832D2B2017000210C2A39
:1025700001D82949895C21228154EEE62449334C53
:10258000095DE72900D8A5E018310132C9B202700F
:1025900000220C2901D8204A525C21214254D9E65C
:1025A0001B4B2B4A9B5CE72B00D888E00222183398
:1025B000DBB2027000220C2B01D8174AD25C212317
:1025C000C254C1E6124B23495B5CE72B6CD9022154
:1025D0001833DBB2017000210C2B01D80E49C95C05
:1025E0002123C154ADE60A491B4C095DE72950D9A6
:1025F0001831C9B2037000230C2901D8064B5B5C6B
:10260000212143549AE6C0465C4200207D360020DA
:10261000588C002084070000EC2505107C07000082
:10262000740700006C070000640700005C070000EE
:10263000540700004C070000440700003C0700005E
:10264000340700002C070000240700001C070000CE
:10265000140700000C070000040700006A486B4CD8
:10266000005DE7280CD918300131C0B21970002381
:102670000C2801D8664B1B5C21216648435459E65F
:102680000726C4083040197081401C191800617079
:1026900050E607260123CC08314003708B40041913
:1026A00061780B43637049E607260121DC0833405B
:1026B00001709940041963781943617041E6072459
:1026C0000122D908234002709A4041184B781A43DE
:1026D0004A7039E60725CC08294002708A4004195F
:1026E00061780A43627035E607250121D4082A4043
:1026F0000170914004196278114361702DE607253D
:102700000121D4082A4001709140041962781143D4
:10271000617025E607250121D4082A400170914007
:1027200004196278114361701DE607250121D40860
:102730002A4001709140041962781143617015E6D6
:1027400007250121D4082A400170914004196278BC
:10275000114361700DE607250121D4082A4001705C
:102760009140041962781143617005E60725012143
:10277000D4082A40017091400419627811436170B5
:10278000FDE507250121D4082A4001709140041974
:10279000627811436170F5E507250121D4082A40CC
:1027A000017091400419627811436170ECE50725CE
:1027B0000121D4082A400170914004196278114324
:1027C0006170E3E507250121D4082A40017091409A
:1027D0000419627811436170DAE507250121D408F4
:1027E0002A40017091400419627811436170D1E56B
:1027F00007240122D908234002709A4041184B78DF
:102800001A434A70C8E5C046588C0020FC060000F8
:10281000EC2505107C360020D02310B5C3585B781A
:10282000032B0CD006D8002B0FD0012B0AD1FFF7B9
:10283000BDFB10BD042B05D1FFF794FCF9E7FFF7B2
:102840005FFDF6E7FFF740FBF3E7FFF71DFCF0E75E
:1028500030B5174A8FB0136801331360012B08D1CC
:102860000122144B52421A6000225A609A60DA60C8
:102870001A61114A136801331360012B01D00FB0A4
:1028800030BD38220D49684630F002FD00230C4C63
:10289000382023606360A36030F000FD050038221B
:1028A000383569462060A56030F0F2FC6560E6E7E7
:1028B0004C420020344200204842002008260510E7
:1028C000FCB70020F8B54568046807000E00AC426C
:1028D00006D023681A79B24203D00434A542F8D155
:1028E000F8BD186804340368DB6898477D68A54222
:1028F000EFD1F5E7F8B54568046807000E00AC4273
:1029000006D023681A79B24203D00434A542F8D124
:10291000F8BD1868043403689B6898477D68A54231
:10292000EFD1F5E7F8B54546DE4657464E46036813
:10293000E0B546689346374A9846F31A05008A463A
:102940009B10934262D0B04556D01A009A18934219
:1029500047D8534641465C1A002300279946002A6F
:102960004CD15B461B683B51002C2ADC5346043497
:102970003C19F61A002E0DDC4346A419002B19D180
:102980004B462F606C60AB60F0BCBB46B246A946BC
:10299000A046F8BD20003200514630F079FC434695
:1029A000A419002BECD005E020003200514630F095
:1029B0006FFCA4194346A968C91A404630F07AFC56
:1029C000DEE72200414638004EF0FEFF5346043455
:1029D0003C19F61A002EE7DC4346A968A419C91A67
:1029E000EBE7534642469C1A0B4B9946484630F05B
:1029F00055FC07008144B4E70122A7E780239B052B
:102A00009A4200D3034A93009946EFE703484CF0FB
:102A100063FFC046FFFFFF1FFCFFFF7F402605103E
:102A2000F0B50B68050083B008001B680C001700A8
:102A30009847002811D0082030F030FC06002368A9
:102A400001905B68200098476968AB683460377113
:102A5000994208D040C1696003E00421200030F0B1
:102A600029FC03B0F0BD280001AAFFF75BFFF8E7DF
:102A700070B505000C1E01D02C7070BD042030F024
:102A80000DFC0600024B03600FF078F86E60F3E770
:102A9000685D051010B5406803685B68984710BD15
:102AA00030B5174A8FB0136801331360012B08D17A
:102AB0000122144B52421A6000225A609A60DA6076
:102AC0001A61114A136801331360012B01D00FB052
:102AD00030BD38220D49684630F0DAFB00230C4C3B
:102AE000382023606360A36030F0D8FB05003822F3
:102AF000383569462060A56030F0CAFB6560E6E7BE
:102B00004C42002034420020484200205C26051040
:102B1000FCB7002000230D4A10B5037043608360AA
:102B200083500B4B04009E220021C01830F0AAFBFA
:102B3000084843F01BFDC3235B01E0182CF016FC92
:102B4000054BE01809F0F0FE200010BD68180000E9
:102B50006C18000030420020D4040000034B10B574
:102B60009C46604409F0A4FD10BDC046D40400009A
:102B7000F0B5C64600B5BFF35B8FFC4B0400C6182A
:102B80003378BFF35B8F002B00D1DAE3C3235B0103
:102B9000C258EFF3108172B61368002BFCD0BFF35C
:102BA0005F8FC3235B01E718F14B796018009846EB
:102BB0004CF082FCEF4D002800D0C5E3EE4BEF4A0D
:102BC000E3181979A9505979ED4AA9509979ED4A34
:102BD000A950D979EC4AA9505A7A197A12020A43B3
:102BE0001204EA4912146A50DA7A997A12020A43F4
:102BF0001204E74912146A50197BE64AA950597B1E
:102C0000E54AA954DA7B997B12020A43197C09042C
:102C100011435A7C12060A43E0496A50DA7C997CD7
:102C200012020A43197D090411435A7D12060A4310
:102C3000DB496A50DA7D997D12020A43197E090444
:102C400011435A7E12060A43D6496A50DA7E997EAB
:102C500012020A43197F090411435A7F12060A43DC
:102C6000D1496A509A7FDB7F1B021343CF4AA218D7
:102C7000127812041A43CE4BE3181B781B06134339
:102C8000CC4AAB50CC4BE3181A78CC4BE3181B78EA
:102C90001B021343CA4AA218127812041A43C94BE2
:102CA000E3181B781B061343C74AAB50C74BE31806
:102CB0001A78C74BE3181B781B021343C54AA218A6
:102CC000127812041A43C44BE3181B781B061343F3
:102CD000C24AAB50C24BE3181A78C24BE3181B78B8
:102CE0001B021343C04AA218127812041A43BF4BA6
:102CF000E3181B781B061343BD4AAB50BD4BE318CA
:102D00001A78BD4BE3181B781B021343BB4AA21869
:102D1000127812041A43BA4BE3181B781B061343AC
:102D2000B84AAB50B84BE3181A78B84BE3181B7885
:102D30001B021343C5225201A218127812041A432F
:102D4000B34BE3181B781B061343B24AAB50B24B8C
:102D5000E3181A78B14BE3181B781B021343B04AEF
:102D6000A218127812041A43AE4BE3181B781B0604
:102D70001343AD4AAB50AD4BE3181A78AC4BE31894
:102D80001B781B021343AB4AA218127812041A4391
:102D9000A94BE3181B781B061343A84AAB50A84B5A
:102DA000E3181A78A74BE3181B781B021343A64AB3
:102DB000A218127812041A43A44BE3181B781B06BE
:102DC0001343A34AAB50A34BE3181A78A24BE31862
:102DD0001B781B021343A14AA218127812041A434B
:102DE0009F4BE3181B781B0613439E4AAB509E4B28
:102DF000E3181A789D4BE3181B781B0213439C4A77
:102E0000A218127812041A439A4BE3181B781B0677
:102E10001343994AAB50994BE3181A78984BE3182F
:102E20001B781B021343C6225201A2181278120407
:102E30001A43944BE3181B781B061343924AAB507A
:102E4000924BE3181A78924BE3181B781B0213433A
:102E5000904AA218127812041A438F4BE3181B7879
:102E60001B0613438D4AAB508D4BE3181A788D4BDC
:102E7000E3181B781B0213438B4AA2181278120422
:102E80001A438A4BE3181B781B061343884AAB503E
:102E9000884BE3181A78884BE3181B781B021343FE
:102EA000864AA218127812041A43854BE3181B783D
:102EB0001B061343834AAB50834BE3181A78834BAA
:102EC000E3181B781B021343814AA21812781204DC
:102ED0001A43804BE3181B781B0613437E4AAB5002
:102EE0007E4BE3181A787E4BE3181B781B021343C2
:102EF0007C4AA218127812041A437B4BE3181B7801
:102F00001B061343794AAB50794BE3181A78794B77
:102F1000E3181B781B021343774AA2181278120495
:102F20001A43764BE3181B781B061343744AAB50C5
:102F3000744BE3181A78744BE3181B781B02134385
:102F4000724AA218127812041A43714BE3181B78C4
:102F50001B0613436F4AAB506F4BE3181A786F4B45
:102F6000E3181B781B021343DAE0C0465C1800002C
:102F70005C420020588C00206C1800001C0D0000E2
:102F8000240D00002C0D0000340D00003C0D00004D
:102F9000440D00004C0D0000510D0000540D0000C8
:102FA0005C0D0000640D00006C0D00008C1800002A
:102FB0008D180000740D00008E1800008F1800009E
:102FC00090180000911800007C0D0000921800007D
:102FD000931800009418000095180000840D00005C
:102FE0009618000097180000981800009918000023
:102FF0008C0D00009A1800009B1800009C1800001F
:103000009D180000940D00009E1800009F180000FD
:10301000A11800009C0D0000A2180000A3180000D9
:10302000A4180000A5180000A40D0000A6180000B8
:10303000A7180000A8180000A9180000AC0D000097
:10304000AA180000AB180000AC180000AD18000072
:10305000B40D0000AE180000AF180000B01800005A
:10306000B1180000BC0D0000BA180000BB18000029
:10307000BC180000BD180000D40D0000BE180000F0
:10308000BF180000C1180000DC0D0000B2180000DD
:10309000B3180000B4180000B5180000C40D0000FB
:1030A000B6180000B7180000B8180000B9180000E2
:1030B000CC0D0000C2180000C3180000C4180000A6
:1030C000C5180000E40D0000C6180000C718000075
:1030D000C8180000C9180000EC0D0000CA18000054
:1030E000CB180000CC180000CD180000F40D000033
:1030F000CE180000CF180000D0180000D118000032
:10310000FC0D0000D2180000D3180000D4180000F5
:10311000D5180000040E0000D6180000D7180000D3
:10312000974AA218127812041A43964BE3181B7898
:103130001B061343944AAB50944BE3181A78944BF4
:10314000E3181B781B021343924AA2181278120448
:103150001A43914BE3181B781B0613438F4AAB505D
:103160008F4BE3181A788F4BE3181B781B0213431D
:10317000C7225201A218127812041A438A4BE3188C
:103180001B781B061343894AAB50894BE3181A7806
:10319000884BE3181B781B021343874AA218127846
:1031A00012041A43854BE3181B781B061343844A09
:1031B000AB50844BE3181A78834BE3181B781B023F
:1031C0001343824AA218127812041A43804BE31860
:1031D0001B781B0613437F4AAB507F4BE3181A78CA
:1031E0007E4BE3181B781B0213437D4AA21812780A
:1031F00012041A437B4BE3181B781B0613437A4ACD
:10320000AB507A4BE3181A78794BE3181B781B0202
:103210001343784AA218127812041A43764BE31823
:103220001B781B061343754AAB50754BE3181A788D
:10323000744BE3181B781B021343734AA2181278CD
:1032400012041A43714BE3181B781B061343704A90
:10325000AB50704BE3181A786F4BE3181B781B02C6
:1032600013436E4AA218127812041A436C4BE318E7
:103270001B781B0613436B4AAB506B4BE3181A7851
:103280006A4BE3181B781B021343694AA218127891
:1032900012041A43674BE3181B781B061343664A54
:1032A000AB50664BE3181A78654BE3181B781B028A
:1032B0001343644AA218127812041A43624BE318AB
:1032C0001B781B061343614AAB50614BE3181A7815
:1032D000604BE3181B781B0213435F4AA218127855
:1032E00012041A435D4BE3181B781B0613435C4A18
:1032F000AB505C4BE3181A785B4BE3181B781B024E
:103300001343C8225201A218127812041A43574BD1
:10331000E3181B781B061343554AAB50554BE01876
:1033200009F0C6F90023BFF35B8FC3223370BFF3EC
:103330005B8F5201A1587A68BFF35F8F0B6082F3F5
:10334000108880BCB846F0BD00234B4A2B70AB50B0
:103350006B60AB60494B9E220021E8182FF092FF72
:10336000474843F003F9C3235B01E8182BF0FEFF45
:10337000404BE81809F0D8FA40464CF0B9F81DE483
:10338000D8180000D91800000C0E0000DA18000050
:10339000DB180000DC180000DD180000140E00002F
:1033A000DE180000DF180000E11800001C0E00000D
:1033B000E2180000E3180000E4180000E51800001F
:1033C000240E0000E6180000E7180000E8180000CE
:1033D000E91800002C0E0000EA180000EB180000AD
:1033E000EC180000ED180000340E0000EE1800008C
:1033F000EF180000F0180000F11800003C0E00006B
:10340000F2180000F3180000F4180000F51800008E
:10341000440E0000F6180000F7180000F81800002D
:10342000F91800004C0E00000219000003190000FA
:103430000419000005190000640E000006190000C0
:103440000719000008190000091900006C0E00009F
:10345000FA180000FB180000FC180000FD1800001E
:10346000540E0000FE180000FF18000001190000B3
:103470005C0E0000D4040000681800006C18000006
:1034800030420020F0B5C6460F0000B582B00600FD
:103490003D0001A843F00EF83C009E35210001A834
:1034A000013443F00BF8AC42F8D101A843F01EF808
:1034B000C3235B010400F158EFF3108372B60A686E
:1034C000002AFCD0BFF35F8FC3225201B518114A06
:1034D0006B609046B258A2420FD00F4B9E22F0185C
:1034E00039002FF0D5FE43460122F450BFF35B8F25
:1034F0000A4BF254BFF35B8F6B68C3225201B25880
:10350000BFF35F8F0021116083F3108802B080BC8D
:10351000B846F0BD681800006C1800005C18000088
:1035200010B5054843F086F8FA2200200349D2007E
:103530002DF09EF910BDC04630420020002004202E
:103540000300054A10B50170991895222C30D2005D
:103550002FF09EFE10BDC0468C070000007870471B
:10356000416070474068704781607047806870476D
:1035700010B5202200210C302FF084FE10BDC04673
:103580000C30704770B5F74E050030004BF094FFDB
:10359000F54C002800D044E200232B706B70AB7018
:1035A000EB70F24BE358FF2B00D9FF232B71F04B4C
:1035B000E358FF2B00D9FF236B71EE4BE358FF2B31
:1035C00000D9FF23AB71EC4BE358FF2B00D9FF234D
:1035D0008022EB71E94B5202E358934200DBE84B47
:1035E0009AB2120A6A7280222B72E64B5202E35898
:1035F000934200DBE24BAB729AB2E34B120AE35800
:10360000EA72E24A2B73A25CE14B2800E35CAA73E6
:10361000DE4A6B73A21851782B00E9739178D27847
:1036200029746A74DB4A1E33A25CAA74D94AA218B0
:103630005178E9749178D27829756A75D64AA25C76
:10364000AA75D54AA2185178E9759178D278297669
:103650006A76D24AA25CAA76D04AA2185178E97654
:103660009178D27829776A77CD4AA25CAA77CC4A3A
:10367000A2185178E9779178D2789970DA70C94AAE
:10368000A25C1A71C74AA218517859719178D27800
:103690009971DA71C44AA25C1A72C34AA2185178AD
:1036A00059729178D2789972DA72C04AA25C1A7310
:1036B000BE4AA218517859739178D2789973DA7307
:1036C000BB4A1033A25C1A70B94AA21851785970DB
:1036D0009178D2789970DA70B64AA25C1A71B54ABC
:1036E000A218517859719178D2789971DA71B24AE9
:1036F000A25C1A72B04AA218517859729178D278A5
:103700009972DA72AD4AA25C1A73AC4AA218517867
:1037100059739178D2789973DA73A94A1033A25CFD
:103720001A70A74AA218517859709178D278997076
:10373000DA70A44AA25C1A71A24AA218517859718F
:103740009178D2789971DA719F4A0833A25C1A7223
:103750009D4AA218517859729178D2789972DA728A
:103760009A4AA25C1A73994AA218517859739178AF
:10377000D2789973DA73964AA25C1A70944AA218A6
:10378000517859709178D2789970DA70914A0433EF
:10379000A25C1A708F4AA218517859709178D27829
:1037A0009970DA708C4AA25C1A738B4AA21851780D
:1037B00059739178D2789973DA73884AA25C1A7433
:1037C000864AA218517859749178D2789974DA742B
:1037D000834AA25C1A75824AA21851785975917869
:1037E000D2789975DA757F4A1833A25C1A707D4ACF
:1037F000A218517859709178D2789970DA707A4A13
:10380000A25C1A71784AA218517859719178D278CD
:103810009971DA71754AA25C1A72744AA2185178C9
:1038200059729178D2789972DA72714AA25C1A73DD
:103830006F4AA218517859739178D2789973DA73D4
:103840006C4A1033A25C1A706A4AA21851785970F7
:103850009178D2789970DA70674AA25C1A71664AD8
:10386000A218517859719178D2789971DA71634AB6
:10387000A25C1A72614AA218517859729178D27872
:103880009972DA725E4AA25C1A735D4AA218517884
:1038900059739178D2789973DA735A4BE25C822328
:1038A000EA54584BE2182B005178823359709178C2
:1038B000D2789970DA70544BE25C8623EA54524B0A
:1038C000E2182B005178863359709178D27899702C
:1038D000DA704E4BE25C8A23EA544C4BE2182B0020
:1038E00051788A3359709178D2789970DA70484B50
:1038F000E25C9623EA54464BE2182B00517896334B
:1039000059709178D2789970DA70424BE25C9A23C0
:10391000EA54404BE2182B0051789A335970917851
:10392000D2789970DA703C4BE25C8E23EA543A4BC1
:10393000E2182B0051788E3359709178D2789970B3
:10394000DA70364BE25C9223EA54344B9C462B00EF
:103950006444627892335A70A2789A70E278DA708E
:103960005EE0C0465C420020588C00201C0D000028
:10397000240D00002C0D0000340D00003C0D000053
:10398000FFFF0000440D00004C0D0000540D00002E
:10399000510D00005C0D0000640D00006C0D000076
:1039A000740D00007C0D0000840D00008C0D0000E3
:1039B000940D00009C0D0000A40D0000AC0D000053
:1039C000B40D0000BC0D0000D40D0000DC0D0000A3
:1039D000C40D0000CC0D0000E40D0000EC0D000053
:1039E000F40D0000FC0D0000040E00000C0E0000A1
:1039F000140E00001C0E0000240E00002C0E00000F
:103A0000340E00003C0E0000440E00004C0E00007E
:103A1000640E00006C0E0000540E00005C0E0000EE
:103A200070BD00230D4A2370A3506360A3600C4B4C
:103A30009E220021E0182FF025FC0A4842F096FD56
:103A4000C3235B01E0182BF091FC074BE01808F052
:103A50006BFF30004BF04CFD9EE5C046681800003F
:103A60006C18000030420020D404000070B5144DE2
:103A700028004BF021FD134C002804D120001249EE
:103A8000FFF700FD70BD0023104A2370A350636050
:103A9000A3600F4B9E220021E0182FF0F3FB0D488E
:103AA00042F064FDC3235B01E0182BF05FFC0A4B7E
:103AB000E01808F039FF28004BF01AFDDEE7C04699
:103AC0005C420020588C0020C4650020681800006B
:103AD0006C18000030420020D404000030B5174AB2
:103AE0008FB0136801331360012B08D10122144BEE
:103AF00052421A6000225A609A60DA601A61114AD2
:103B0000136801331360012B01D00FB030BD382290
:103B10000D4968462FF0BCFB00230C4C3820236075
:103B20006360A3602FF0BAFB050038223835694680
:103B30002060A5602FF0ACFB6560E6E74C420020FA
:103B4000344200204842002094260510FCB7002093
:103B5000802080037047C0460148024BC01A70475E
:103B600044020B1000000010024B0348C01A034B24
:103B7000C01870470000042000200420385F0100B6
:103B80000148024BC01A704700000420385F012032
:103B900000B58BB068464DF00FFE07980BB000BD26
:103BA00010B5040001200649404230F087FB054B68
:103BB0000022002100201C622CF05AFE30BFFDE7DD
:103BC000FFFFFF0F0080054010B52CF09FFE00287E
:103BD00011D00A4B186A0A4B984208D0094B9842F8
:103BE00005D0094BC3185A4253415B42184000228A
:103BF000024B1A6210BD0020FCE7C0460080054061
:103C0000CD66D543A58477E71F1BC808F0B5D64617
:103C10004F464646C0B5DC4D82B004006846AF6AE8
:103C200042F048FCD94E29006846013542F046FC76
:103C3000B542F8D1002301AD019302AE29006846D8
:103C4000013542F03BFCAE42F8D1684642F04EFCF2
:103C50000026874201D101F005F88023CC4D68464B
:103C6000EF5842F027FCCB4B9846290068460135B7
:103C700042F024FC4545F8D10023019302AB98465D
:103C800001AD29006846013542F018FCA845F8D17D
:103C9000684642F02BFC874201D100F055FEBE4D34
:103CA00068462F6F42F006FCBC4B984629006846D8
:103CB000013542F003FC4545F8D10023019302ABE6
:103CC000984601AD29006846013542F0F7FBA8454A
:103CD000F8D1684642F00AFC874201D101F0E8F8C9
:103CE000AF4B68461B6801AD984642F0E3FB0023EA
:103CF00002AF019329006846013542F0DFFBAF4275
:103D0000F8D1A84DA84F29006846013542F0D6FBEE
:103D1000BD42F8D1684642F0E9FB804500D01DE283
:103D2000842301221B01E254A04B0126E1189C4B85
:103D3000187948609D48225458790A72C860987969
:103D40000A744861D8790A76C8610825585F4862C4
:103D50009748201802700A25585FC86295482018B5
:103D60000270187B486394482018027093485D7B6A
:103D700020180570924820180270188ADD89000406
:103D80002843C8638F4820180270988A5D8A00040F
:103D9000284348648C4820180270188BDD8A000480
:103DA0002843C864894820180270988B5D8B0004F2
:103DB00028434865864820180270188CDD8B000463
:103DC0002843C865834820180270988C5D8C0004D5
:103DD00028434866804820180270188DDD8C000446
:103DE0002843C8667D4820180270988D5D8D0004B8
:103DF000284348677A4820180270188EDD8D000429
:103E00002843C867774961180A7077495D8E601842
:103E1000998E090429430160744961180A708D2143
:103E20000901DD8E6018198F09042943016070496A
:103E300061180A706F495D8F6018998F09042943D2
:103E400001606D4961180A708E21090160184021D6
:103E5000595ADD8F090429430160684961180A70C5
:103E60006749601842215D5A0231595A09042943B1
:103E70000160644961180A708F21090160184621A8
:103E80005D5A0231595A0904294301605E4961189B
:103E90000A705E4960184A215D5A0231595A090474
:103EA000294301605A4961180A709021090160187C
:103EB0004E215D5A0231595A09042943016055497E
:103EC00061180A705449601852215D5A0231595ADA
:103ED000090429430160514961180A7091210901BF
:103EE000601856215D5A0231595A0904294301606C
:103EF0004B4961180A704B4960185A215D5A0231CA
:103F0000595A090429430160474961180A709221EE
:103F1000090160185E215D5A0231595A090429438A
:103F20000160424961180A704149601862215D5A76
:103F30000231595A0904294301603E4961180A7047
:103F400093210901601866215D5A0231595A09040A
:103F500029430160384961180A70384960186A219C
:103F60005D5A0231595A09042943016034496118E4
:103F70000A709421090160186E215D5A0231595A64
:103F80000904294301605DE000E01F1028E01F10D4
:103F900000E41F1080E41F1000E61F1070E61F10E1
:103FA00000E81F1004E81F109EE81F1044080000DE
:103FB000640800006C080000740800007D08000020
:103FC0007C0800007E080000840800008C080000C7
:103FD000940800009C080000A4080000AC08000041
:103FE000B4080000BC080000C8080000C4080000B5
:103FF000CC080000D8080000D4080000DC0800004D
:10400000E8080000E4080000EC080000F8080000E0
:10401000F4080000FC080000080900000409000082
:104020000C09000018090000140900001C09000018
:1040300028090000240900002C09000038090000AC
:10404000340900006D4961180A706D4960187221C9
:104050005D5A0231595A09042943016069496118BE
:104060000A7095210901601876215D5A0231595A6A
:10407000090429430160644961180A7063496018A2
:104080007A215D5A0231595A090429430160604975
:1040900061180A709621090160187E215D5A02316B
:1040A000595A0904294301605A4961180A705A494A
:1040B000601882215D5A0231595A0904294301606E
:1040C000564961180A7097210901601886215D5AC6
:1040D0000231595A090429430160514961180A7093
:1040E000504960188A215D5A0231595A09042943FE
:1040F00001604D4961180A709821090160188E21EC
:104100005D5A0231595A090429430160474961182F
:104110000A704749601892215D5A0231595A0904C0
:1041200029430160434961180A7099210901601807
:1041300096215D5A0231595A0904294301609C2590
:104140009A203D4961180A70185A5B5B3B491B0471
:10415000034361180B603A4BE3181A70394D6846F7
:104160006F6E42F0A7F9384B984629006846013532
:1041700042F0A4F94545F8D10023019302AB9846DB
:1041800001AD29006846013542F098F9A845F8D1FB
:10419000684642F0ABF9874262D02C492C4A2D4B3D
:1041A0008A589A4200D1E4E280232B4DDB00684616
:1041B000EF5842F07FF9294B9846290068460135AF
:1041C00042F07CF94545F8D10023019302AB9846B3
:1041D00001AD29006846013542F070F9A845F8D1D3
:1041E000684642F083F9874201D100F055FF300064
:1041F00002B0E0BCBA46B146A846F0BD3C0900009A
:1042000048090000440900004C090000580900005A
:10421000540900005C0900006809000064090000FE
:104220006C09000078090000740900007C09000096
:1042300088090000840900008C090000980900002A
:104240009409000000EC1F1064EC1F1000F01F1018
:1042500094060000EFBEADDE00F81F1000FC1F103A
:104260000123F94AF948A354F94AA3545422815C22
:104270004A1E9141F74AA2185170F64963541F3300
:10428000C35CFF2B01D101F067F853600123EF49B4
:1042900093702033CB5CFF2B01D101F061F8D36028
:1042A000012313729A221201A3545622E749885C13
:1042B000421E9041E84AA2185070E7482354488CA7
:1042C00093705060E54AA3545722885C421E904187
:1042D000E34AA2185070E24823542B33CB5CFF2BE7
:1042E00001D101F041F8012153602D23D74891708D
:1042F000C35C1172D360DB4BE1545823C25C531E84
:104300009A41D94BE3185A70D74AA154427EFF2AEA
:1043100001D101F02DF85A6001229A70CB4A927EA9
:10432000FF2A01D101F058F8DA6001221A72C74A57
:10433000D27EFF2A01D101F053F85A6101221A748A
:10434000C24A127FFF2A01D100F060FFDA61012228
:10435000BE491A76497F022901D800F04FFFBB4AB7
:10436000917F59620121C14BE3181970C04BE15490
:104370005923D05C431E9841BE4BE3185870BD488A
:1043800021542331525CFF2A01D100F0C5FF5A604D
:104390000122AE499A70886A1A72D860B64BE2540C
:1043A0005A23C85C431E9841B44BE3185870B34875
:1043B000225408699A7058604A7BFF2A01D100F0A4
:1043C000AFFFDA6001221A72A04A927BFF2A01D164
:1043D00000F0AAFF5A6101229C491A74087E1A76DD
:1043E000D86148695862A64BE3181A70A7231B01CD
:1043F000E2545B23C85C431E9841A24BE3185870FB
:10440000A04822548A78FF2A01D100F091FF5A6017
:1044100001229A708D4AD278FF2A01D100F08CFFD8
:10442000DA6001221A72984B8849E2545C23C85C16
:10443000431E9841B4231B01E3185870B4200001B7
:1044400022542E20085C9A705860904BE2545E23F0
:10445000C85C431E98418E4BE31858708C48225418
:104460004A78FF2A01D100F06BFF5A6001229A704E
:10447000764A127AFF2A01D100F066FFDA60012243
:1044800072491A72487A1A745861887A1A76D86111
:10449000C87A58627F4820180270087BD862AB2324
:1044A0001B01E3181A707C4BE2546023C85C431E66
:1044B00098417A4BE3185870784822540A79FF2AB9
:1044C00001D100F045FF5A6001229A705F4A52798B
:1044D000FF2A01D100F058FFDA60012249215B4830
:1044E0001A72415C042901D800F07EFE4722574928
:1044F0008A5C042A01D800F06CFE482253498A5C89
:10450000042A01D800F060FE0122654B4F48E254B6
:104510005523C35C591E8B4162496118CB708A7068
:10452000C37F022B01D800F04AFE01205E4B4749B1
:10453000E0545F23CA5C531E9A415C4BE3185A70E7
:104540005A4AA0540A78FF2A01D100F021FF5A608C
:1045500001229A703D4AD279FF2A01D100F00CFF66
:104560000121DA60394A197290791974586145311C
:10457000525CFF2A01D100F003FF01212F20DA61F4
:10458000324A1976105C451EA841494D65192870BC
:10459000484820180170508E586247482018017012
:1045A000908ED862454820180170D08E58634448D8
:1045B00020180170108FD8634248201801703931DB
:1045C000525CFF2A01D100F0E7FE01215A643E4A05
:1045D000A21811703B221D498A5CFF2A01D100F00C
:1045E000DFFE0121DA64394AA21811703C22174912
:1045F0008A5CFF2A01D100F0D7FE01215A65344AB6
:10460000A21811703D2211498A5CFF2A01D100F0E5
:10461000CFFEDA6501222F4961180A700B49C88F55
:1046200058662D48201802704020085AD8662B483A
:10463000201802704220085A586729482018027032
:104640004420085AD8674DE09C09000000EC1F1078
:10465000B1090000B4090000A4090000140B000017
:10466000180B0000E40A0000E80A00000A0B000032
:10467000280B00002C0B0000B80A0000BC0A000048
:10468000DC0A0000740A00003C0B0000840A0000F1
:10469000880A0000A80A000030120000341200004E
:1046A000AC090000AD090000E8090000EC090000B9
:1046B0000D0A00000C0A00000E0A0000140A000097
:1046C0001C0A0000240A00002C0A0000340A000022
:1046D0003C0A0000440A00004C0A0000540A000092
:1046E0005C0A0000694BE3181A703023CB5C012B85
:1046F00005D8674961180B70664BE3181A700121E1
:10470000654B664AE1546123D05C431E9841644B7B
:10471000E318587062482154D06C99705860493140
:10472000525CFF2A01D100F047FEDA6001225B49AA
:104730001A724A328A5CFF2A01D100F041FE5A61A6
:10474000012256491A74086D1A76D861554B012614
:10475000E2545D23CB5C591E8B41534961184B7069
:10476000514B5249E254524A524B8A589A4200D015
:104770001AE50125504B4C4AE5544A4BA718E5541D
:104780001023BB80B52380261B011022E0182EF0D9
:104790007FFD4A4B760032003E834949BD70E018E8
:1047A0002EF076FD474BBD75E3181E80464B320058
:1047B0004649E0182EF06CFD0422454B4549E318AC
:1047C0001D70454B8027E3181A80444BE0182EF0EB
:1047D0005FFD434B3200E3181D70424B4249E31822
:1047E0001E80424BE0182EF053FDD7231B01E31827
:1047F0001D703F4B8022E3181F803E4B3E49E0185E
:104800002EF046FD3D4B8022E3181D703C4B3D4988
:10481000E3181F803C4BE0182EF03AFD3B4B802202
:10482000E3181D703A4B3B49E3181F80F8231B0126
:10483000E0182EF02DFD384B8022E3181D70374B09
:104840003749E3181F80374BE0182EF021FD8023F5
:104850005B01E3181D70344B8022E3181F80334B3B
:104860003349E0182EF014FD324B3200E3181D706E
:10487000314B3249E3181E80314BFF3EE0182EF0D9
:1048800007FD304BE3181D708EE4C046640A00003B
:104890006D0A00006C0A00000C12000000EC1F10F2
:1048A00010120000480B00004A0B000000F01F101F
:1048B00094060000EFBEADDE9C090000640B000012
:1048C00010F01F10660C0000680C000010F11F10A3
:1048D000640C000010F21F106A0D00006C0D000047
:1048E000680D0000720D000014F21F10740D00001E
:1048F000760E0000780E000014F31F10740E0000F6
:10490000FA0E000094F31F10FC0E0000F80E0000D9
:104910007E0F000014F41F107C0F00000210000036
:1049200094F41F100410000086100000881000008E
:1049300014F51F10841000000A11000094F51F10D8
:104940000C11000008110000C22301225B00E25498
:10495000B94B5A78FF2A01D100F036FD2300893384
:10496000FF335A60C42201215200A154B24A927806
:10497000FF2A01D100F02CFDDA6001221A72AE4A42
:10498000D278FF2A01D100F045FC5A6101221A7445
:10499000A94A1279FF2A01D100F040FCDA61012214
:1049A0001A76A54A5279FF2A01D100F03BFC5A62DF
:1049B00022000121A932FF3211709F4A9279FF2A09
:1049C00001D100F033FCDA6222000121B132FF3262
:1049D0001170994AD279FF2A01D100F02BFC5A6359
:1049E00022000121B932FF321170934A127AFF2A54
:1049F00001D100F023FCDA6322000121C132FF3231
:104A000011708D4A527AFF2A01D100F01BFC5A64C2
:104A100022000121C932FF321170874A927AFF2A9F
:104A200001D100F013FCDA6422000121D132FF32FF
:104A30001170814AD27AFF2A01D100F00BFC5A652D
:104A400022000121D932FF3211707B4A127BFF2AEA
:104A500001D100F003FCDA6522000121E132FF32CE
:104A60001170754A527BFF2A01D100F0FBFB5A6698
:104A700022000121E932FF3211706F4A927BFF2A36
:104A800001D100F035FCDA6622000121F132FF325B
:104A90001170694AD27BFF2A01D100F02DFC5A67C0
:104AA00022000121F932FF321170634A127CFF2A81
:104AB00001D100F025FCDA67802301229B00E31876
:104AC0001A705D4B5B7CFF2B01D100F01DFC832233
:104AD0009200A2181360822301229B00E3181A702F
:104AE000554B9B7CFF2B01D100F012FC85229200DC
:104AF000A2181360842301229B00E3181A70AD23CF
:104B00009B00E25428234C49C85CAE239B00E31869
:104B10005870AE2080002254086A9A705860087F4E
:104B20001A72D860487F1A745861C86A1A76D861B8
:104B3000486A5862B6239B00E3181A70CB7C0C2B92
:104B400000D82FE33C4B1B7D102B00D81EE33B4BC2
:104B500019780C2900D902E3BB22BB250120920061
:104B6000A218AD00517060555D68107195609D6828
:104B700010731561DD681B699561107513621077FC
:104B8000C5239B00C522E318597001219200A1544E
:104B90002B494A6888689A6001221861C8680969C7
:104BA0001A711A7398611A7519621A77224B5B7D14
:104BB000032B06D8234961180B70CE239B00E31802
:104BC0001A701D4B9B7D052B06D81F4AA218137027
:104BD00001221E4BE3181A70D023174A9B009169DB
:104BE000E3181960CF2101233020890061180B7070
:104BF0001749105C61180860E9213120C90061186B
:104C00000B701449105C61180860EA21C900611832
:104C10000B703221505C1049012661180870EB219D
:104C2000C90061180B70516B0C4AA21811600C4A34
:104C3000A2181370FFF733F800E41F1038E41F10B8
:104C40004CE41F10390300003B0300003A0300004E
:104C50004C07000054070000590700005C070000E3
:104C60005A070000212201232100A3548F4A223138
:104C70001278042A00D869E28C4B5B78022B00D8AA
:104C80005BE28A4B9B78042B00D852E2874AD378A8
:104C9000CB7101238B7110790B72487288218900C6
:104CA000635450790431611848608920800023548E
:104CB00090790B72C860D0790B744861107A0B76CA
:104CC000C861507A48629120800020180370907A61
:104CD000C8629320800020180370D07A4863952022
:104CE000800020180370107BC86397208000201874
:104CF0000370507B48649920800020180370907BDB
:104D0000C8649B20800020180370D07B48659D20DC
:104D1000800020180370107CC8659F208000201838
:104D20000370507C4866A120800020180370907C9E
:104D3000C866A320800020180370D07C4867A52097
:104D4000800020180370107DC867A72189006118B2
:104D50000B70AA21507D890061180860A921890083
:104D600061180B70AC21907D890061180860AB213F
:104D7000890061180B7032216354D17DC020E1633A
:104D80002100800034310B7160648B73127E0C2A19
:104D900000D8CBE1454901224B7EA3652300543363
:104DA0001A70C0239B00236623005E331A708B7E2B
:104DB0000C2B00D8B3E13D490122CB7E6367230071
:104DC00070331A70C0239B00E36723007A331A7094
:104DD0000B7F0C2B00D89BE190233449C0204A7FE5
:104DE0008000E250230001228C331A709823E05097
:104DF000230096331A708B7F0C2B00D881E1AC23F3
:104E00002A499020CA7F4001E25023000122A833A2
:104E10001A70B423E0502300B2331A702023CB5C05
:104E20000C2B00D866E1212320499020CA5CA733CF
:104E3000E25023000122C4331A70D0234001E05015
:104E40002300CE331A702223CB5C0C2B00D84AE10E
:104E5000232316499020CA5CC133E250230001226B
:104E6000E0331A70EC234001E0502300EA331A705B
:104E70002423CB5C0C2B00D82EE125230B4990205A
:104E8000CA5CDB33E25023000122FC331A70842316
:104E900040015B00E050E31DFF331A702623CB5C1A
:104EA0000C2B00D80FE10126FEF7D7FE00E01F1003
:104EB000EE4B1F78002F01D1FEF712FFEC220121EB
:104EC0005B68D200A1541D2B01D901235B42E84A43
:104ED000A1184B600123A354E44A127A032A01D893
:104EE0004A720B72E14B5B7A0C2B02D8CB72012316
:104EF0008B72DE4B9A7A0A6101220A73D87A0A759C
:104F00008861187B0A77086218698862F120C000FE
:104F10002018027058690863F220C000201802703F
:104F200098698863F320C00020180270D86908646B
:104F3000F420C00020180270186A8864F520C000B0
:104F400020180270586A0865F620C0002018027008
:104F5000986A8865F720C00020180270D86A086631
:104F6000F820C00020180270186B8866F920C00075
:104F700020180270586B0867FA20C00020180270D1
:104F8000986B8867FB21C90061180A70B949D86B12
:104F900061180860FC21C90061180A70B649186CD4
:104FA00061180860FD21C90061180A70B349586C86
:104FB00061180860FE21C90061180A70B049986C38
:104FC00061180860FF21C90061180A70AD49D86CEA
:104FD000611808608021090161180A70AA49186DDA
:104FE00061180860A949586D61180A70A8499B6D3D
:104FF000611808608121090161185BB20A70591CAF
:10500000022905D8A34961180B70A34BE3181A7045
:105010000126964BA14AD96DA2181160A04A196EBB
:10502000A21816709F4AA218116082221201A218BB
:1050300016709D4A596EA21811609C4AA2181670EB
:105040009A6E9B4BE3181A6083231B01E3181E70B2
:10505000984B9846984BA044187899462DF0DCFF61
:105060002EF02EF803049A464B4658782DF0D4FFC4
:105070002EF026F8534605021D434B4698782DF036
:10508000CBFF2EF01DF8434605431D608B4BE31804
:105090001E703E00FEF724FEAD23012580229B00FA
:1050A000E554874BD200E3181A80D2239B00E01806
:1050B00084492EF0EDF8D1239B009C4664440126E0
:1050C0002570FFF794F8A11DFF310B70631DFF33AE
:1050D00001261A70FEF7C1FD2100E9310B70230093
:1050E000E8331A70C9E62100CD310B702300CC33B0
:1050F0001A70ADE62100B1310B702300B0331A7085
:1051000091E6210095310B70230094331A7076E6F6
:10511000210079310B70230078331A705CE621008E
:105120005D310B7023005C331A7044E64A730B73D5
:1051300030E64B7101230B71A8E5CB7001238B7016
:10514000614B9B78042B00D9A0E5F2E74A7022223C
:10515000A3545D4B5B78022B00D992E5EDE7BB22AF
:105160009D689200A21858681561DD681B699060FF
:105170001362C52301209B00107110739561107597
:105180001077E318102900D902E5F9E44F4AA21874
:10519000137001224E4BE3181A704E4B19780C29EC
:1051A000DDD8D9E44C4961180B70B8239B00E31893
:1051B0001A704A4B1B7D102B00D9C8E4E6E74B70F0
:1051C000474BE254FFF7B1F95A7501221A75FFF700
:1051D0009BF9DA7401229A74482242498A5C042AB3
:1051E00001D9FFF791F9EFE71A74472259743D4945
:1051F0008A5C042A01D9FFF780F9EAE73A482018C7
:1052000001703A4961180A70FFF7A9F8013AFF3AAC
:10521000FFF79CF8013AFF3AFFF7B7FB013AFF3A74
:10522000FFF7BCFB013AFF3AFFF7C1FB013AFF3A37
:10523000FFF7C9FB013AFF3AFFF7D1FB013AFF3A0A
:10524000FFF7D9FB013AFF3AFFF7E1FB013AFF3ADA
:10525000FFF7E9FB013AFF3AFFF7F1FB013AFF3AAA
:10526000FFF7F9FB013AFF3AFFF701FC00E61F10D8
:1052700064070000E4070000EC070000F4070000EA
:10528000FC070000040800000C08000008080000EB
:105290001408000019080000180800001C0800008D
:1052A0001A080000240800002C080000280800004C
:1052B000340800003C0800006CE61F1038080000AD
:1052C0004603000000F81F1000E01F10E30200007A
:1052D000E202000038E41F10E102000000E41F10A9
:1052E000AD09000000EC1F10090B0000080B0000C6
:1052F000013AFF3AFFF7C7FB013AFF3AFFF7CFFB4E
:10530000013AFF3AFFF7D7FB013BFF3BFFF7DFFB1B
:10531000013BFF3BFFF7EAFB013AFF3AFFF737F8A3
:10532000013AFF3AFFF74DF8013AFF3AFFF752F81A
:10533000013AFF3AFFF76BF8013AFF3AFFF770F8CE
:10534000013AFF3AFFF791F8013AFF3AFFF796F872
:10535000013AFF3AFFF7B7F8013BFF3BFEF795FF35
:10536000013BFF3BFEF79BFF013BFF3BFEF7BBFF13
:10537000013AFF3AFEF7CFFF013AFF3AFFF7F0F8A4
:10538000013AFF3AFFF7F9F8013AFF3AFFF7A4F8BC
:10539000013AFF3AFFF7DBF8013AFF3AFFF715F958
:1053A000013AFF3AFFF71DF9013AFF3AFFF725F9F5
:1053B000013AFF3AFFF72DF9013AFF3AFFF7B5F945
:1053C000013AFF3AFFF7BBF9013AFF3AFFF7C6FA95
:1053D000013AFF3AFFF7D0FA013AFF3AFEF7A4FF8D
:1053E000013AFF3AFEF7A9FF30B5174A8FB01368AC
:1053F00001331360012B08D10122144B52421A6071
:1054000000225A609A60DA601A61114A1368013307
:105410001360012B01D00FB030BD38220D49684612
:105420002DF036FF00230C4C382023606360A3600E
:105430002DF034FF05003822383569462060A5601C
:105440002DF026FF6560E6E74C4200203442002044
:1054500048420020CC260510FCB7002070B504009F
:1054600008000D004CF088FC6168064B02005B1AD6
:10547000984204D8290020004AF060FD70BD02481F
:105480004AF02AFAFFFFFF3F04270510F0B5574600
:105490004E46DE464546E0B5CB17CC18824689B06D
:1054A000CE0F5C40092C00D88DE0632C00D898E02A
:1054B000FA239B009C4200D299E0514B9C4200D8B9
:1054C00092E0504B05219C422BD94F4B9C4200D877
:1054D00090E04E4B062507219C4223D94C4B9C4221
:1054E0006ED94C4B9C421BD90925691C02AB9B46CB
:1054F0002D2204AB58467118019302934AF00EFB1B
:10550000029B9B190093632C19D8434B9846434642
:1055100064001B195B78009A537043461C5D31E0B0
:1055200009214D1E02AB9B462D2204AB5846711833
:10553000019302934AF0F2FA029B9B190093009B9D
:10554000013D9C46344B654498462D4B99462000BE
:1055500064212CF035FE20004E0064212CF030FE3A
:1055600043469B195B7827006B7043469B5D0400A4
:105570002B70023D4F45EAD8FA239B009F42C6D2CA
:105580003034E4B2009B1C705B465A68534658683E
:10559000224B02991B1A9A422ED850464AF0CEFC52
:1055A0000298019B984204D05B46996801312DF026
:1055B00081FE09B0F0BCBB46B246A946A046F0BD8C
:1055C00007250821AEE702AB9B462D2204AB5846C7
:1055D000711C019302934AF0A1FA029B9B1900935C
:1055E000CEE70221012581E7032504219AE7022560
:1055F000032197E7052578E709484AF06DF9C04689
:105600000F2700009F8601003F420F007F96980001
:10561000FFE0F505FFC99A3B704B0510FFFFFF3F08
:1056200004270510F0B5C6460F0000B5002823D0AA
:10563000002921D003689846002B19D008004CF0AF
:105640009BFB4346DD680600002D0FD028004CF080
:1056500093FB864213D043460A229B5E002B0BD05D
:105660001B0198444346DD68002DEFD1002EF2D196
:10567000404680BCB846F0BD00239846F8E7002EAF
:10568000F6D0002302E001339E42F1D0FC5CEA5CDC
:105690009442F8D0DFE7C046F0B55746DE464E46A6
:1056A0004546E0B582460C0089B0092900D888E05B
:1056B000632900D892E0FA239B00994200D291E03E
:1056C0004D4B994200D88BE04C4B994200D88BE06F
:1056D0004B4B9C4200D889E04A4B07219C4222D97F
:1056E000494B9C421ED9494B09219C421BD901318F
:1056F00002AB9B46002204AB5846019302934AF04A
:105700000DFA029B00935B465E68632C18D8404BF1
:105710009846434664001B195B78009A53704346D1
:105720001C5D30E0082102AB9B46002204AB5846CA
:10573000019302934AF0F2F9029B00935B465E6884
:10574000009B023E9C46324B664498462A4B994643
:10575000200064212CF034FD20004D0064212CF049
:105760002FFD43465B195B782700737043465B5DF2
:1057700004003370023E4F45EAD8FA239B009F4253
:10578000C7D23034E4B2009B1C705B465A68534663
:105790005868204B02991B1A9A4229D850464AF061
:1057A000CDFB0298019B984204D05B469968013179
:1057B0002DF080FD09B0F0BCBB46B246A946A0461C
:1057C000F0BD02AB9B46002204AB01215846019379
:1057D00002934AF0A3F9029B0093D2E7022187E7E4
:1057E0000421A0E703219EE705219CE705217EE730
:1057F00009484AF071F8C0460F2700009F86010053
:105800003F420F007F969800FFE0F505FFC99A3BE5
:10581000704B0510FFFFFF3F04270510F0B5C6468B
:1058200000B54368604D04000E0082B0EB1A012BF6
:1058300000D8B6E0092702225C494AF07FFB052325
:1058400061680022200000974AF038FA6368EB1A7A
:10585000092B00D8A5E00A22554920004AF06EFB2A
:1058600020007168FFF712FE6368EB1A012B00D865
:1058700097E0504B02221900200098464AF05EFB48
:10588000052361680022200000974AF017FA636838
:10589000EB1A092B00D884E00A22474920004AF07D
:1058A0004DFB2000F168FFF7F1FD6368EB1A012B57
:1058B00000D876E00222414620004AF03FFB052353
:1058C00061680022200000974AF0F8F96368EB1A3B
:1058D0000F2B66D91022394920004AF02FFB2000F7
:1058E0007169FFF7D3FD6368EB1A012B59D90222C6
:1058F000414620004AF022FB052361680022200077
:1059000000974AF0DBF96368ED1A102D49D927009A
:1059100011222B4920004AF011FBF1692000FFF70A
:10592000B5FD666823680837751CBB4237D0A2688E
:1059300095421ED80A229A550022236865605A555E
:105940000923616820000093053B4AF0B7F96668B7
:105950002368751CBB4220D0A268954213D87D22D3
:105960009A550022236865605A5502B080BCB8463B
:10597000F0BD0123002200933100002320004AF0F3
:10598000F1F82368D6E701230022009331000023B9
:1059900020004AF0E7F82368E1E70F22DDE70F2255
:1059A000C6E7084849F098FFFFFFFF3F1C27051096
:1059B000202705102C270510302705103C2705103F
:1059C0005027051004270510F0B5C64600B54368FA
:1059D000604D04000E0082B0EB1A012B00D8B6E037
:1059E000092702225C494AF0A9FA032361680022D0
:1059F000200000974AF062F96368EB1A0B2B00D87D
:105A0000A5E00C22554920004AF098FA2000716860
:105A1000FFF742FE6368EB1A012B00D897E0504B6A
:105A200002221900200098464AF088FA0323616890
:105A30000022200000974AF041F96368EB1A092B15
:105A400000D884E00A22474920004AF077FA200073
:105A5000717AFFF721FE6368EB1A012B00D876E01C
:105A60000222414620004AF069FA032361680022BD
:105A7000200000974AF022F96368EB1A0E2B66D9D2
:105A80000F22394920004AF059FA2000F168FFF747
:105A900003FE6368EB1A012B59D90222414620000C
:105AA0004AF04CFA032361680022200000974AF074
:105AB00005F96368ED1A0A2D49D927000B222B49F5
:105AC00020004AF03BFA71692000FFF7E5FD6668A7
:105AD00023680837751CBB4237D0A26895421ED890
